{
  "_format": "hh-sol-artifact-1",
  "contractName": "Voting",
  "sourceName": "contracts/Voting.sol",
  "abi": [
    {
      "inputs": [
        {
          "internalType": "string[]",
          "name": "_parties",
          "type": "string[]"
        },
        {
          "internalType": "string[][]",
          "name": "_candidateNames",
          "type": "string[][]"
        }
      ],
      "stateMutability": "nonpayable",
      "type": "constructor"
    },
    {
      "inputs": [
        {
          "internalType": "uint256",
          "name": "_partyIndex",
          "type": "uint256"
        }
      ],
      "name": "getAllCandidates",
      "outputs": [
        {
          "components": [
            {
              "internalType": "string",
              "name": "name",
              "type": "string"
            },
            {
              "internalType": "uint256",
              "name": "voteCount",
              "type": "uint256"
            },
            {
              "internalType": "string",
              "name": "party",
              "type": "string"
            }
          ],
          "internalType": "struct Voting.Candidate[]",
          "name": "",
          "type": "tuple[]"
        }
      ],
      "stateMutability": "view",
      "type": "function"
    },
    {
      "inputs": [],
      "name": "getAllParties",
      "outputs": [
        {
          "components": [
            {
              "internalType": "string",
              "name": "name",
              "type": "string"
            },
            {
              "components": [
                {
                  "internalType": "string",
                  "name": "name",
                  "type": "string"
                },
                {
                  "internalType": "uint256",
                  "name": "voteCount",
                  "type": "uint256"
                },
                {
                  "internalType": "string",
                  "name": "party",
                  "type": "string"
                }
              ],
              "internalType": "struct Voting.Candidate[]",
              "name": "partyCandidates",
              "type": "tuple[]"
            },
            {
              "internalType": "uint256",
              "name": "voteCount",
              "type": "uint256"
            }
          ],
          "internalType": "struct Voting.Party[]",
          "name": "",
          "type": "tuple[]"
        }
      ],
      "stateMutability": "view",
      "type": "function"
    },
    {
      "inputs": [
        {
          "internalType": "uint256",
          "name": "",
          "type": "uint256"
        }
      ],
      "name": "parties",
      "outputs": [
        {
          "internalType": "string",
          "name": "name",
          "type": "string"
        },
        {
          "internalType": "uint256",
          "name": "voteCount",
          "type": "uint256"
        }
      ],
      "stateMutability": "view",
      "type": "function"
    },
    {
      "inputs": [
        {
          "internalType": "address",
          "name": "",
          "type": "address"
        }
      ],
      "name": "partyIndex",
      "outputs": [
        {
          "internalType": "uint256",
          "name": "",
          "type": "uint256"
        }
      ],
      "stateMutability": "view",
      "type": "function"
    },
    {
      "inputs": [],
      "name": "resetContract",
      "outputs": [],
      "stateMutability": "nonpayable",
      "type": "function"
    },
    {
      "inputs": [
        {
          "internalType": "uint256",
          "name": "_candidateIndex",
          "type": "uint256"
        },
        {
          "internalType": "uint256",
          "name": "_partyIndex",
          "type": "uint256"
        }
      ],
      "name": "voteCandidate",
      "outputs": [],
      "stateMutability": "nonpayable",
      "type": "function"
    },
    {
      "inputs": [
        {
          "internalType": "uint256",
          "name": "_partyIndex",
          "type": "uint256"
        }
      ],
      "name": "voteParty",
      "outputs": [],
      "stateMutability": "nonpayable",
      "type": "function"
    },
    {
      "inputs": [
        {
          "internalType": "address",
          "name": "",
          "type": "address"
        }
      ],
      "name": "votedCandidate",
      "outputs": [
        {
          "internalType": "bool",
          "name": "",
          "type": "bool"
        }
      ],
      "stateMutability": "view",
      "type": "function"
    },
    {
      "inputs": [
        {
          "internalType": "address",
          "name": "",
          "type": "address"
        }
      ],
      "name": "votedParty",
      "outputs": [
        {
          "internalType": "bool",
          "name": "",
          "type": "bool"
        }
      ],
      "stateMutability": "view",
      "type": "function"
    }
  ],
  "bytecode": "0x60806040523480156200001157600080fd5b506040516200215938038062002159833981810160405281019062000037919062000683565b60005b8251811015620000b95760008060018160018154018082558091505003906000526020600020906003020190508382815181106200007d576200007c62000708565b5b602002602001015181600001908162000097919062000982565b5060008160020181905550508080620000b09062000a98565b9150506200003a565b5060005b8151811015620002b35760006040518060600160405280848481518110620000ea57620000e962000708565b5b602002602001015160008151811062000108576200010762000708565b5b602002602001015181526020016000815260200184848151811062000132576200013162000708565b5b602002602001015160018151811062000150576200014f62000708565b5b6020026020010151815250905060005b6000805490508110156200029b57816040015160405160200162000185919062000b27565b6040516020818303038152906040528051906020012060008281548110620001b257620001b162000708565b5b9060005260206000209060030201600001604051602001620001d5919062000bcf565b604051602081830303815290604052805190602001200362000285576000818154811062000208576200020762000708565b5b906000526020600020906003020160010182908060018154018082558091505060019003906000526020600020906003020160009091909190915060008201518160000190816200025a919062000982565b506020820151816001015560408201518160020190816200027c919062000982565b5050506200029b565b8080620002929062000a98565b91505062000160565b50508080620002aa9062000a98565b915050620000bd565b5033600160006101000a81548173ffffffffffffffffffffffffffffffffffffffff021916908373ffffffffffffffffffffffffffffffffffffffff160217905550505062000be8565b6000604051905090565b600080fd5b600080fd5b600080fd5b6000601f19601f8301169050919050565b7f4e487b7100000000000000000000000000000000000000000000000000000000600052604160045260246000fd5b620003618262000316565b810181811067ffffffffffffffff8211171562000383576200038262000327565b5b80604052505050565b600062000398620002fd565b9050620003a6828262000356565b919050565b600067ffffffffffffffff821115620003c957620003c862000327565b5b602082029050602081019050919050565b600080fd5b600080fd5b600067ffffffffffffffff82111562000402576200040162000327565b5b6200040d8262000316565b9050602081019050919050565b60005b838110156200043a5780820151818401526020810190506200041d565b60008484015250505050565b60006200045d6200045784620003e4565b6200038c565b9050828152602081018484840111156200047c576200047b620003df565b5b620004898482856200041a565b509392505050565b600082601f830112620004a957620004a862000311565b5b8151620004bb84826020860162000446565b91505092915050565b6000620004db620004d584620003ab565b6200038c565b90508083825260208201905060208402830185811115620005015762000500620003da565b5b835b818110156200054f57805167ffffffffffffffff8111156200052a576200052962000311565b5b80860162000539898262000491565b8552602085019450505060208101905062000503565b5050509392505050565b600082601f83011262000571576200057062000311565b5b815162000583848260208601620004c4565b91505092915050565b600067ffffffffffffffff821115620005aa57620005a962000327565b5b602082029050602081019050919050565b6000620005d2620005cc846200058c565b6200038c565b90508083825260208201905060208402830185811115620005f857620005f7620003da565b5b835b818110156200064657805167ffffffffffffffff81111562000621576200062062000311565b5b80860162000630898262000559565b85526020850194505050602081019050620005fa565b5050509392505050565b600082601f83011262000668576200066762000311565b5b81516200067a848260208601620005bb565b91505092915050565b600080604083850312156200069d576200069c62000307565b5b600083015167ffffffffffffffff811115620006be57620006bd6200030c565b5b620006cc8582860162000559565b925050602083015167ffffffffffffffff811115620006f057620006ef6200030c565b5b620006fe8582860162000650565b9150509250929050565b7f4e487b7100000000000000000000000000000000000000000000000000000000600052603260045260246000fd5b600081519050919050565b7f4e487b7100000000000000000000000000000000000000000000000000000000600052602260045260246000fd5b600060028204905060018216806200078a57607f821691505b602082108103620007a0576200079f62000742565b5b50919050565b60008190508160005260206000209050919050565b60006020601f8301049050919050565b600082821b905092915050565b6000600883026200080a7fffffffffffffffffffffffffffffffffffffffffffffffffffffffffffffffff82620007cb565b620008168683620007cb565b95508019841693508086168417925050509392505050565b6000819050919050565b6000819050919050565b6000620008636200085d62000857846200082e565b62000838565b6200082e565b9050919050565b6000819050919050565b6200087f8362000842565b620008976200088e826200086a565b848454620007d8565b825550505050565b600090565b620008ae6200089f565b620008bb81848462000874565b505050565b5b81811015620008e357620008d7600082620008a4565b600181019050620008c1565b5050565b601f8211156200093257620008fc81620007a6565b6200090784620007bb565b8101602085101562000917578190505b6200092f6200092685620007bb565b830182620008c0565b50505b505050565b600082821c905092915050565b6000620009576000198460080262000937565b1980831691505092915050565b600062000972838362000944565b9150826002028217905092915050565b6200098d8262000737565b67ffffffffffffffff811115620009a957620009a862000327565b5b620009b5825462000771565b620009c2828285620008e7565b600060209050601f831160018114620009fa5760008415620009e5578287015190505b620009f1858262000964565b86555062000a61565b601f19841662000a0a86620007a6565b60005b8281101562000a345784890151825560018201915060208501945060208101905062000a0d565b8683101562000a54578489015162000a50601f89168262000944565b8355505b6001600288020188555050505b505050505050565b7f4e487b7100000000000000000000000000000000000000000000000000000000600052601160045260246000fd5b600062000aa5826200082e565b91507fffffffffffffffffffffffffffffffffffffffffffffffffffffffffffffffff820362000ada5762000ad962000a69565b5b600182019050919050565b600081905092915050565b600062000afd8262000737565b62000b09818562000ae5565b935062000b1b8185602086016200041a565b80840191505092915050565b600062000b35828462000af0565b915081905092915050565b6000815462000b4f8162000771565b62000b5b818662000ae5565b9450600182166000811462000b79576001811462000b8f5762000bc6565b60ff198316865281151582028601935062000bc6565b62000b9a85620007a6565b60005b8381101562000bbe5781548189015260018201915060208101905062000b9d565b838801955050505b50505092915050565b600062000bdd828462000b40565b915081905092915050565b6115618062000bf86000396000f3fe608060405234801561001057600080fd5b50600436106100935760003560e01c8063b867bfcc11610066578063b867bfcc1461011f578063d4f715761461013d578063d53165441461016d578063eb1e62701461019d578063f9ded646146101b957610093565b806304cee9b31461009857806354f25520146100b457806370651a18146100e4578063b181a8fc14610115575b600080fd5b6100b260048036038101906100ad9190610d94565b6101e9565b005b6100ce60048036038101906100c99190610e1f565b6103b3565b6040516100db9190610e5b565b60405180910390f35b6100fe60048036038101906100f99190610d94565b6103cb565b60405161010c929190610f06565b60405180910390f35b61011d610487565b005b610127610798565b60405161013491906111c1565b60405180910390f35b61015760048036038101906101529190610e1f565b610a20565b60405161016491906111fe565b60405180910390f35b61018760048036038101906101829190610e1f565b610a40565b60405161019491906111fe565b60405180910390f35b6101b760048036038101906101b29190611219565b610a60565b005b6101d360048036038101906101ce9190610d94565b610ba7565b6040516101e091906112df565b60405180910390f35b600260003373ffffffffffffffffffffffffffffffffffffffff1673ffffffffffffffffffffffffffffffffffffffff16815260200190815260200160002060009054906101000a900460ff1615610276576040517f08c379a000000000000000000000000000000000000000000000000000000000815260040161026d90611373565b60405180910390fd5b6000818154811061028a57610289611393565b5b906000526020600020906003020160020160008154809291906102ac906113f1565b91905055506001600260003373ffffffffffffffffffffffffffffffffffffffff1673ffffffffffffffffffffffffffffffffffffffff16815260200190815260200160002060006101000a81548160ff02191690831515021790555080600460003373ffffffffffffffffffffffffffffffffffffffff1673ffffffffffffffffffffffffffffffffffffffff168152602001908152602001600020819055506005339080600181540180825580915050600190039060005260206000200160009091909190916101000a81548173ffffffffffffffffffffffffffffffffffffffff021916908373ffffffffffffffffffffffffffffffffffffffff16021790555050565b60046020528060005260406000206000915090505481565b600081815481106103db57600080fd5b90600052602060002090600302016000915090508060000180546103fe90611468565b80601f016020809104026020016040519081016040528092919081815260200182805461042a90611468565b80156104775780601f1061044c57610100808354040283529160200191610477565b820191906000526020600020905b81548152906001019060200180831161045a57829003601f168201915b5050505050908060020154905082565b600160009054906101000a900473ffffffffffffffffffffffffffffffffffffffff1673ffffffffffffffffffffffffffffffffffffffff163373ffffffffffffffffffffffffffffffffffffffff16146104e157600080fd5b60005b6005805490508110156106b3576000600260006005848154811061050b5761050a611393565b5b9060005260206000200160009054906101000a900473ffffffffffffffffffffffffffffffffffffffff1673ffffffffffffffffffffffffffffffffffffffff1673ffffffffffffffffffffffffffffffffffffffff16815260200190815260200160002060006101000a81548160ff021916908315150217905550600060036000600584815481106105a1576105a0611393565b5b9060005260206000200160009054906101000a900473ffffffffffffffffffffffffffffffffffffffff1673ffffffffffffffffffffffffffffffffffffffff1673ffffffffffffffffffffffffffffffffffffffff16815260200190815260200160002060006101000a81548160ff0219169083151502179055506000600460006005848154811061063757610636611393565b5b9060005260206000200160009054906101000a900473ffffffffffffffffffffffffffffffffffffffff1673ffffffffffffffffffffffffffffffffffffffff1673ffffffffffffffffffffffffffffffffffffffff1681526020019081526020016000208190555080806106ab906113f1565b9150506104e4565b5060005b6000805490508110156107955760008082815481106106d9576106d8611393565b5b90600052602060002090600302016002018190555060005b6000828154811061070557610704611393565b5b90600052602060002090600302016001018054905081101561078157600080838154811061073657610735611393565b5b9060005260206000209060030201600101828154811061075957610758611393565b5b9060005260206000209060030201600101819055508080610779906113f1565b9150506106f1565b50808061078d906113f1565b9150506106b7565b50565b60606000805480602002602001604051908101604052809291908181526020016000905b82821015610a1757838290600052602060002090600302016040518060600160405290816000820180546107ef90611468565b80601f016020809104026020016040519081016040528092919081815260200182805461081b90611468565b80156108685780601f1061083d57610100808354040283529160200191610868565b820191906000526020600020905b81548152906001019060200180831161084b57829003601f168201915b5050505050815260200160018201805480602002602001604051908101604052809291908181526020016000905b828210156109f657838290600052602060002090600302016040518060600160405290816000820180546108c990611468565b80601f01602080910402602001604051908101604052809291908181526020018280546108f590611468565b80156109425780601f1061091757610100808354040283529160200191610942565b820191906000526020600020905b81548152906001019060200180831161092557829003601f168201915b505050505081526020016001820154815260200160028201805461096590611468565b80601f016020809104026020016040519081016040528092919081815260200182805461099190611468565b80156109de5780601f106109b3576101008083540402835291602001916109de565b820191906000526020600020905b8154815290600101906020018083116109c157829003601f168201915b50505050508152505081526020019060010190610896565b505050508152602001600282015481525050815260200190600101906107bc565b50505050905090565b60026020528060005260406000206000915054906101000a900460ff1681565b60036020528060005260406000206000915054906101000a900460ff1681565b600360003373ffffffffffffffffffffffffffffffffffffffff1673ffffffffffffffffffffffffffffffffffffffff16815260200190815260200160002060009054906101000a900460ff1615610aed576040517f08c379a0000000000000000000000000000000000000000000000000000000008152600401610ae49061150b565b60405180910390fd5b60008181548110610b0157610b00611393565b5b90600052602060002090600302016001018281548110610b2457610b23611393565b5b90600052602060002090600302016001016000815480929190610b46906113f1565b91905055506001600360003373ffffffffffffffffffffffffffffffffffffffff1673ffffffffffffffffffffffffffffffffffffffff16815260200190815260200160002060006101000a81548160ff0219169083151502179055505050565b606060008281548110610bbd57610bbc611393565b5b9060005260206000209060030201600101805480602002602001604051908101604052809291908181526020016000905b82821015610d4e5783829060005260206000209060030201604051806060016040529081600082018054610c2190611468565b80601f0160208091040260200160405190810160405280929190818152602001828054610c4d90611468565b8015610c9a5780601f10610c6f57610100808354040283529160200191610c9a565b820191906000526020600020905b815481529060010190602001808311610c7d57829003601f168201915b5050505050815260200160018201548152602001600282018054610cbd90611468565b80601f0160208091040260200160405190810160405280929190818152602001828054610ce990611468565b8015610d365780601f10610d0b57610100808354040283529160200191610d36565b820191906000526020600020905b815481529060010190602001808311610d1957829003601f168201915b50505050508152505081526020019060010190610bee565b505050509050919050565b600080fd5b6000819050919050565b610d7181610d5e565b8114610d7c57600080fd5b50565b600081359050610d8e81610d68565b92915050565b600060208284031215610daa57610da9610d59565b5b6000610db884828501610d7f565b91505092915050565b600073ffffffffffffffffffffffffffffffffffffffff82169050919050565b6000610dec82610dc1565b9050919050565b610dfc81610de1565b8114610e0757600080fd5b50565b600081359050610e1981610df3565b92915050565b600060208284031215610e3557610e34610d59565b5b6000610e4384828501610e0a565b91505092915050565b610e5581610d5e565b82525050565b6000602082019050610e706000830184610e4c565b92915050565b600081519050919050565b600082825260208201905092915050565b60005b83811015610eb0578082015181840152602081019050610e95565b60008484015250505050565b6000601f19601f8301169050919050565b6000610ed882610e76565b610ee28185610e81565b9350610ef2818560208601610e92565b610efb81610ebc565b840191505092915050565b60006040820190508181036000830152610f208185610ecd565b9050610f2f6020830184610e4c565b9392505050565b600081519050919050565b600082825260208201905092915050565b6000819050602082019050919050565b600082825260208201905092915050565b6000610f7e82610e76565b610f888185610f62565b9350610f98818560208601610e92565b610fa181610ebc565b840191505092915050565b600081519050919050565b600082825260208201905092915050565b6000819050602082019050919050565b610fe181610d5e565b82525050565b600060608301600083015184820360008601526110048282610f73565b91505060208301516110196020860182610fd8565b50604083015184820360408601526110318282610f73565b9150508091505092915050565b600061104a8383610fe7565b905092915050565b6000602082019050919050565b600061106a82610fac565b6110748185610fb7565b93508360208202850161108685610fc8565b8060005b858110156110c257848403895281516110a3858261103e565b94506110ae83611052565b925060208a0199505060018101905061108a565b50829750879550505050505092915050565b600060608301600083015184820360008601526110f18282610f73565b9150506020830151848203602086015261110b828261105f565b91505060408301516111206040860182610fd8565b508091505092915050565b600061113783836110d4565b905092915050565b6000602082019050919050565b600061115782610f36565b6111618185610f41565b93508360208202850161117385610f52565b8060005b858110156111af5784840389528151611190858261112b565b945061119b8361113f565b925060208a01995050600181019050611177565b50829750879550505050505092915050565b600060208201905081810360008301526111db818461114c565b905092915050565b60008115159050919050565b6111f8816111e3565b82525050565b600060208201905061121360008301846111ef565b92915050565b600080604083850312156112305761122f610d59565b5b600061123e85828601610d7f565b925050602061124f85828601610d7f565b9150509250929050565b600082825260208201905092915050565b600061127582610fac565b61127f8185611259565b93508360208202850161129185610fc8565b8060005b858110156112cd57848403895281516112ae858261103e565b94506112b983611052565b925060208a01995050600181019050611295565b50829750879550505050505092915050565b600060208201905081810360008301526112f9818461126a565b905092915050565b7f596f75206861766520616c726561647920766f746564206f6e2061207061727460008201527f792e000000000000000000000000000000000000000000000000000000000000602082015250565b600061135d602283610e81565b915061136882611301565b604082019050919050565b6000602082019050818103600083015261138c81611350565b9050919050565b7f4e487b7100000000000000000000000000000000000000000000000000000000600052603260045260246000fd5b7f4e487b7100000000000000000000000000000000000000000000000000000000600052601160045260246000fd5b60006113fc82610d5e565b91507fffffffffffffffffffffffffffffffffffffffffffffffffffffffffffffffff820361142e5761142d6113c2565b5b600182019050919050565b7f4e487b7100000000000000000000000000000000000000000000000000000000600052602260045260246000fd5b6000600282049050600182168061148057607f821691505b60208210810361149357611492611439565b5b50919050565b7f596f75206861766520616c726561647920766f74656420666f7220612063616e60008201527f6469646174652e00000000000000000000000000000000000000000000000000602082015250565b60006114f5602783610e81565b915061150082611499565b604082019050919050565b60006020820190508181036000830152611524816114e8565b905091905056fea26469706673582212208786a48613c37fbedc725ee792b0f668f6285448dd578bdd78384b168ad1f42d64736f6c63430008120033",
  "linkReferences": {},
  "deployedLinkReferences": {}
}