{
  "_format": "hh-sol-artifact-1",
  "contractName": "Voting",
  "sourceName": "contracts/Voting.sol",
  "abi": [
    {
      "inputs": [
        {
          "internalType": "string[]",
          "name": "_parties",
          "type": "string[]"
        },
        {
          "internalType": "string[][]",
          "name": "_candidateNames",
          "type": "string[][]"
        }
      ],
      "stateMutability": "nonpayable",
      "type": "constructor"
    },
    {
      "inputs": [
        {
          "internalType": "uint256",
          "name": "_partyIndex",
          "type": "uint256"
        }
      ],
      "name": "getAllCandidates",
      "outputs": [
        {
          "components": [
            {
              "internalType": "string",
              "name": "name",
              "type": "string"
            },
            {
              "internalType": "uint256",
              "name": "voteCount",
              "type": "uint256"
            },
            {
              "internalType": "string",
              "name": "party",
              "type": "string"
            }
          ],
          "internalType": "struct Voting.Candidate[]",
          "name": "",
          "type": "tuple[]"
        }
      ],
      "stateMutability": "view",
      "type": "function"
    },
    {
      "inputs": [],
      "name": "getAllParties",
      "outputs": [
        {
          "components": [
            {
              "internalType": "string",
              "name": "name",
              "type": "string"
            },
            {
              "components": [
                {
                  "internalType": "string",
                  "name": "name",
                  "type": "string"
                },
                {
                  "internalType": "uint256",
                  "name": "voteCount",
                  "type": "uint256"
                },
                {
                  "internalType": "string",
                  "name": "party",
                  "type": "string"
                }
              ],
              "internalType": "struct Voting.Candidate[]",
              "name": "partyCandidates",
              "type": "tuple[]"
            },
            {
              "internalType": "uint256",
              "name": "voteCount",
              "type": "uint256"
            }
          ],
          "internalType": "struct Voting.Party[]",
          "name": "",
          "type": "tuple[]"
        }
      ],
      "stateMutability": "view",
      "type": "function"
    },
    {
      "inputs": [
        {
          "internalType": "uint256",
          "name": "",
          "type": "uint256"
        }
      ],
      "name": "parties",
      "outputs": [
        {
          "internalType": "string",
          "name": "name",
          "type": "string"
        },
        {
          "internalType": "uint256",
          "name": "voteCount",
          "type": "uint256"
        }
      ],
      "stateMutability": "view",
      "type": "function"
    },
    {
      "inputs": [
        {
          "internalType": "address",
          "name": "",
          "type": "address"
        }
      ],
      "name": "partyIndex",
      "outputs": [
        {
          "internalType": "uint256",
          "name": "",
          "type": "uint256"
        }
      ],
      "stateMutability": "view",
      "type": "function"
    },
    {
      "inputs": [],
      "name": "resetContract",
      "outputs": [],
      "stateMutability": "nonpayable",
      "type": "function"
    },
    {
      "inputs": [
        {
          "internalType": "uint256",
          "name": "_candidateIndex",
          "type": "uint256"
        },
        {
          "internalType": "uint256",
          "name": "_partyIndex",
          "type": "uint256"
        }
      ],
      "name": "voteCandidate",
      "outputs": [],
      "stateMutability": "nonpayable",
      "type": "function"
    },
    {
      "inputs": [
        {
          "internalType": "uint256",
          "name": "_partyIndex",
          "type": "uint256"
        }
      ],
      "name": "voteParty",
      "outputs": [],
      "stateMutability": "nonpayable",
      "type": "function"
    },
    {
      "inputs": [
        {
          "internalType": "address",
          "name": "",
          "type": "address"
        }
      ],
      "name": "votedCandidate",
      "outputs": [
        {
          "internalType": "bool",
          "name": "",
          "type": "bool"
        }
      ],
      "stateMutability": "view",
      "type": "function"
    },
    {
      "inputs": [
        {
          "internalType": "address",
          "name": "",
          "type": "address"
        }
      ],
      "name": "votedParty",
      "outputs": [
        {
          "internalType": "bool",
          "name": "",
          "type": "bool"
        }
      ],
      "stateMutability": "view",
      "type": "function"
    }
  ],
  "bytecode": "0x60806040523480156200001157600080fd5b50604051620022bc380380620022bc833981810160405281019062000037919062000683565b60005b8251811015620000b95760008060018160018154018082558091505003906000526020600020906003020190508382815181106200007d576200007c62000708565b5b602002602001015181600001908162000097919062000982565b5060008160020181905550508080620000b09062000a98565b9150506200003a565b5060005b8151811015620002b35760006040518060600160405280848481518110620000ea57620000e962000708565b5b602002602001015160008151811062000108576200010762000708565b5b602002602001015181526020016000815260200184848151811062000132576200013162000708565b5b602002602001015160018151811062000150576200014f62000708565b5b6020026020010151815250905060005b6000805490508110156200029b57816040015160405160200162000185919062000b27565b6040516020818303038152906040528051906020012060008281548110620001b257620001b162000708565b5b9060005260206000209060030201600001604051602001620001d5919062000bcf565b604051602081830303815290604052805190602001200362000285576000818154811062000208576200020762000708565b5b906000526020600020906003020160010182908060018154018082558091505060019003906000526020600020906003020160009091909190915060008201518160000190816200025a919062000982565b506020820151816001015560408201518160020190816200027c919062000982565b5050506200029b565b8080620002929062000a98565b91505062000160565b50508080620002aa9062000a98565b915050620000bd565b5033600160006101000a81548173ffffffffffffffffffffffffffffffffffffffff021916908373ffffffffffffffffffffffffffffffffffffffff160217905550505062000be8565b6000604051905090565b600080fd5b600080fd5b600080fd5b6000601f19601f8301169050919050565b7f4e487b7100000000000000000000000000000000000000000000000000000000600052604160045260246000fd5b620003618262000316565b810181811067ffffffffffffffff8211171562000383576200038262000327565b5b80604052505050565b600062000398620002fd565b9050620003a6828262000356565b919050565b600067ffffffffffffffff821115620003c957620003c862000327565b5b602082029050602081019050919050565b600080fd5b600080fd5b600067ffffffffffffffff82111562000402576200040162000327565b5b6200040d8262000316565b9050602081019050919050565b60005b838110156200043a5780820151818401526020810190506200041d565b60008484015250505050565b60006200045d6200045784620003e4565b6200038c565b9050828152602081018484840111156200047c576200047b620003df565b5b620004898482856200041a565b509392505050565b600082601f830112620004a957620004a862000311565b5b8151620004bb84826020860162000446565b91505092915050565b6000620004db620004d584620003ab565b6200038c565b90508083825260208201905060208402830185811115620005015762000500620003da565b5b835b818110156200054f57805167ffffffffffffffff8111156200052a576200052962000311565b5b80860162000539898262000491565b8552602085019450505060208101905062000503565b5050509392505050565b600082601f83011262000571576200057062000311565b5b815162000583848260208601620004c4565b91505092915050565b600067ffffffffffffffff821115620005aa57620005a962000327565b5b602082029050602081019050919050565b6000620005d2620005cc846200058c565b6200038c565b90508083825260208201905060208402830185811115620005f857620005f7620003da565b5b835b818110156200064657805167ffffffffffffffff81111562000621576200062062000311565b5b80860162000630898262000559565b85526020850194505050602081019050620005fa565b5050509392505050565b600082601f83011262000668576200066762000311565b5b81516200067a848260208601620005bb565b91505092915050565b600080604083850312156200069d576200069c62000307565b5b600083015167ffffffffffffffff811115620006be57620006bd6200030c565b5b620006cc8582860162000559565b925050602083015167ffffffffffffffff811115620006f057620006ef6200030c565b5b620006fe8582860162000650565b9150509250929050565b7f4e487b7100000000000000000000000000000000000000000000000000000000600052603260045260246000fd5b600081519050919050565b7f4e487b7100000000000000000000000000000000000000000000000000000000600052602260045260246000fd5b600060028204905060018216806200078a57607f821691505b602082108103620007a0576200079f62000742565b5b50919050565b60008190508160005260206000209050919050565b60006020601f8301049050919050565b600082821b905092915050565b6000600883026200080a7fffffffffffffffffffffffffffffffffffffffffffffffffffffffffffffffff82620007cb565b620008168683620007cb565b95508019841693508086168417925050509392505050565b6000819050919050565b6000819050919050565b6000620008636200085d62000857846200082e565b62000838565b6200082e565b9050919050565b6000819050919050565b6200087f8362000842565b620008976200088e826200086a565b848454620007d8565b825550505050565b600090565b620008ae6200089f565b620008bb81848462000874565b505050565b5b81811015620008e357620008d7600082620008a4565b600181019050620008c1565b5050565b601f8211156200093257620008fc81620007a6565b6200090784620007bb565b8101602085101562000917578190505b6200092f6200092685620007bb565b830182620008c0565b50505b505050565b600082821c905092915050565b6000620009576000198460080262000937565b1980831691505092915050565b600062000972838362000944565b9150826002028217905092915050565b6200098d8262000737565b67ffffffffffffffff811115620009a957620009a862000327565b5b620009b5825462000771565b620009c2828285620008e7565b600060209050601f831160018114620009fa5760008415620009e5578287015190505b620009f1858262000964565b86555062000a61565b601f19841662000a0a86620007a6565b60005b8281101562000a345784890151825560018201915060208501945060208101905062000a0d565b8683101562000a54578489015162000a50601f89168262000944565b8355505b6001600288020188555050505b505050505050565b7f4e487b7100000000000000000000000000000000000000000000000000000000600052601160045260246000fd5b600062000aa5826200082e565b91507fffffffffffffffffffffffffffffffffffffffffffffffffffffffffffffffff820362000ada5762000ad962000a69565b5b600182019050919050565b600081905092915050565b600062000afd8262000737565b62000b09818562000ae5565b935062000b1b8185602086016200041a565b80840191505092915050565b600062000b35828462000af0565b915081905092915050565b6000815462000b4f8162000771565b62000b5b818662000ae5565b9450600182166000811462000b79576001811462000b8f5762000bc6565b60ff198316865281151582028601935062000bc6565b62000b9a85620007a6565b60005b8381101562000bbe5781548189015260018201915060208101905062000b9d565b838801955050505b50505092915050565b600062000bdd828462000b40565b915081905092915050565b6116c48062000bf86000396000f3fe608060405234801561001057600080fd5b50600436106100935760003560e01c8063b867bfcc11610066578063b867bfcc1461011f578063d4f715761461013d578063d53165441461016d578063eb1e62701461019d578063f9ded646146101b957610093565b806304cee9b31461009857806354f25520146100b457806370651a18146100e4578063b181a8fc14610115575b600080fd5b6100b260048036038101906100ad9190610e45565b6101e9565b005b6100ce60048036038101906100c99190610ed0565b6103fa565b6040516100db9190610f0c565b60405180910390f35b6100fe60048036038101906100f99190610e45565b610412565b60405161010c929190610fb7565b60405180910390f35b61011d6104ce565b005b6101276107df565b6040516101349190611272565b60405180910390f35b61015760048036038101906101529190610ed0565b610a67565b60405161016491906112af565b60405180910390f35b61018760048036038101906101829190610ed0565b610a87565b60405161019491906112af565b60405180910390f35b6101b760048036038101906101b291906112ca565b610aa7565b005b6101d360048036038101906101ce9190610e45565b610c58565b6040516101e09190611390565b60405180910390f35b600260003373ffffffffffffffffffffffffffffffffffffffff1673ffffffffffffffffffffffffffffffffffffffff16815260200190815260200160002060009054906101000a900460ff1615610276576040517f08c379a000000000000000000000000000000000000000000000000000000000815260040161026d90611424565b60405180910390fd5b60008054905081106102bd576040517f08c379a00000000000000000000000000000000000000000000000000000000081526004016102b490611490565b60405180910390fd5b600081815481106102d1576102d06114b0565b5b906000526020600020906003020160020160008154809291906102f39061150e565b91905055506001600260003373ffffffffffffffffffffffffffffffffffffffff1673ffffffffffffffffffffffffffffffffffffffff16815260200190815260200160002060006101000a81548160ff02191690831515021790555080600460003373ffffffffffffffffffffffffffffffffffffffff1673ffffffffffffffffffffffffffffffffffffffff168152602001908152602001600020819055506005339080600181540180825580915050600190039060005260206000200160009091909190916101000a81548173ffffffffffffffffffffffffffffffffffffffff021916908373ffffffffffffffffffffffffffffffffffffffff16021790555050565b60046020528060005260406000206000915090505481565b6000818154811061042257600080fd5b906000526020600020906003020160009150905080600001805461044590611585565b80601f016020809104026020016040519081016040528092919081815260200182805461047190611585565b80156104be5780601f10610493576101008083540402835291602001916104be565b820191906000526020600020905b8154815290600101906020018083116104a157829003601f168201915b5050505050908060020154905082565b600160009054906101000a900473ffffffffffffffffffffffffffffffffffffffff1673ffffffffffffffffffffffffffffffffffffffff163373ffffffffffffffffffffffffffffffffffffffff161461052857600080fd5b60005b6005805490508110156106fa5760006002600060058481548110610552576105516114b0565b5b9060005260206000200160009054906101000a900473ffffffffffffffffffffffffffffffffffffffff1673ffffffffffffffffffffffffffffffffffffffff1673ffffffffffffffffffffffffffffffffffffffff16815260200190815260200160002060006101000a81548160ff021916908315150217905550600060036000600584815481106105e8576105e76114b0565b5b9060005260206000200160009054906101000a900473ffffffffffffffffffffffffffffffffffffffff1673ffffffffffffffffffffffffffffffffffffffff1673ffffffffffffffffffffffffffffffffffffffff16815260200190815260200160002060006101000a81548160ff0219169083151502179055506000600460006005848154811061067e5761067d6114b0565b5b9060005260206000200160009054906101000a900473ffffffffffffffffffffffffffffffffffffffff1673ffffffffffffffffffffffffffffffffffffffff1673ffffffffffffffffffffffffffffffffffffffff1681526020019081526020016000208190555080806106f29061150e565b91505061052b565b5060005b6000805490508110156107dc5760008082815481106107205761071f6114b0565b5b90600052602060002090600302016002018190555060005b6000828154811061074c5761074b6114b0565b5b9060005260206000209060030201600101805490508110156107c857600080838154811061077d5761077c6114b0565b5b906000526020600020906003020160010182815481106107a05761079f6114b0565b5b90600052602060002090600302016001018190555080806107c09061150e565b915050610738565b5080806107d49061150e565b9150506106fe565b50565b60606000805480602002602001604051908101604052809291908181526020016000905b82821015610a5e578382906000526020600020906003020160405180606001604052908160008201805461083690611585565b80601f016020809104026020016040519081016040528092919081815260200182805461086290611585565b80156108af5780601f10610884576101008083540402835291602001916108af565b820191906000526020600020905b81548152906001019060200180831161089257829003601f168201915b5050505050815260200160018201805480602002602001604051908101604052809291908181526020016000905b82821015610a3d578382906000526020600020906003020160405180606001604052908160008201805461091090611585565b80601f016020809104026020016040519081016040528092919081815260200182805461093c90611585565b80156109895780601f1061095e57610100808354040283529160200191610989565b820191906000526020600020905b81548152906001019060200180831161096c57829003601f168201915b50505050508152602001600182015481526020016002820180546109ac90611585565b80601f01602080910402602001604051908101604052809291908181526020018280546109d890611585565b8015610a255780601f106109fa57610100808354040283529160200191610a25565b820191906000526020600020905b815481529060010190602001808311610a0857829003601f168201915b505050505081525050815260200190600101906108dd565b50505050815260200160028201548152505081526020019060010190610803565b50505050905090565b60026020528060005260406000206000915054906101000a900460ff1681565b60036020528060005260406000206000915054906101000a900460ff1681565b600360003373ffffffffffffffffffffffffffffffffffffffff1673ffffffffffffffffffffffffffffffffffffffff16815260200190815260200160002060009054906101000a900460ff1615610b34576040517f08c379a0000000000000000000000000000000000000000000000000000000008152600401610b2b90611602565b60405180910390fd5b60008181548110610b4857610b476114b0565b5b9060005260206000209060030201600101805490508210610b9e576040517f08c379a0000000000000000000000000000000000000000000000000000000008152600401610b959061166e565b60405180910390fd5b60008181548110610bb257610bb16114b0565b5b90600052602060002090600302016001018281548110610bd557610bd46114b0565b5b90600052602060002090600302016001016000815480929190610bf79061150e565b91905055506001600360003373ffffffffffffffffffffffffffffffffffffffff1673ffffffffffffffffffffffffffffffffffffffff16815260200190815260200160002060006101000a81548160ff0219169083151502179055505050565b606060008281548110610c6e57610c6d6114b0565b5b9060005260206000209060030201600101805480602002602001604051908101604052809291908181526020016000905b82821015610dff5783829060005260206000209060030201604051806060016040529081600082018054610cd290611585565b80601f0160208091040260200160405190810160405280929190818152602001828054610cfe90611585565b8015610d4b5780601f10610d2057610100808354040283529160200191610d4b565b820191906000526020600020905b815481529060010190602001808311610d2e57829003601f168201915b5050505050815260200160018201548152602001600282018054610d6e90611585565b80601f0160208091040260200160405190810160405280929190818152602001828054610d9a90611585565b8015610de75780601f10610dbc57610100808354040283529160200191610de7565b820191906000526020600020905b815481529060010190602001808311610dca57829003601f168201915b50505050508152505081526020019060010190610c9f565b505050509050919050565b600080fd5b6000819050919050565b610e2281610e0f565b8114610e2d57600080fd5b50565b600081359050610e3f81610e19565b92915050565b600060208284031215610e5b57610e5a610e0a565b5b6000610e6984828501610e30565b91505092915050565b600073ffffffffffffffffffffffffffffffffffffffff82169050919050565b6000610e9d82610e72565b9050919050565b610ead81610e92565b8114610eb857600080fd5b50565b600081359050610eca81610ea4565b92915050565b600060208284031215610ee657610ee5610e0a565b5b6000610ef484828501610ebb565b91505092915050565b610f0681610e0f565b82525050565b6000602082019050610f216000830184610efd565b92915050565b600081519050919050565b600082825260208201905092915050565b60005b83811015610f61578082015181840152602081019050610f46565b60008484015250505050565b6000601f19601f8301169050919050565b6000610f8982610f27565b610f938185610f32565b9350610fa3818560208601610f43565b610fac81610f6d565b840191505092915050565b60006040820190508181036000830152610fd18185610f7e565b9050610fe06020830184610efd565b9392505050565b600081519050919050565b600082825260208201905092915050565b6000819050602082019050919050565b600082825260208201905092915050565b600061102f82610f27565b6110398185611013565b9350611049818560208601610f43565b61105281610f6d565b840191505092915050565b600081519050919050565b600082825260208201905092915050565b6000819050602082019050919050565b61109281610e0f565b82525050565b600060608301600083015184820360008601526110b58282611024565b91505060208301516110ca6020860182611089565b50604083015184820360408601526110e28282611024565b9150508091505092915050565b60006110fb8383611098565b905092915050565b6000602082019050919050565b600061111b8261105d565b6111258185611068565b93508360208202850161113785611079565b8060005b85811015611173578484038952815161115485826110ef565b945061115f83611103565b925060208a0199505060018101905061113b565b50829750879550505050505092915050565b600060608301600083015184820360008601526111a28282611024565b915050602083015184820360208601526111bc8282611110565b91505060408301516111d16040860182611089565b508091505092915050565b60006111e88383611185565b905092915050565b6000602082019050919050565b600061120882610fe7565b6112128185610ff2565b93508360208202850161122485611003565b8060005b85811015611260578484038952815161124185826111dc565b945061124c836111f0565b925060208a01995050600181019050611228565b50829750879550505050505092915050565b6000602082019050818103600083015261128c81846111fd565b905092915050565b60008115159050919050565b6112a981611294565b82525050565b60006020820190506112c460008301846112a0565b92915050565b600080604083850312156112e1576112e0610e0a565b5b60006112ef85828601610e30565b925050602061130085828601610e30565b9150509250929050565b600082825260208201905092915050565b60006113268261105d565b611330818561130a565b93508360208202850161134285611079565b8060005b8581101561137e578484038952815161135f85826110ef565b945061136a83611103565b925060208a01995050600181019050611346565b50829750879550505050505092915050565b600060208201905081810360008301526113aa818461131b565b905092915050565b7f596f75206861766520616c726561647920766f746564206f6e2061207061727460008201527f792e000000000000000000000000000000000000000000000000000000000000602082015250565b600061140e602283610f32565b9150611419826113b2565b604082019050919050565b6000602082019050818103600083015261143d81611401565b9050919050565b7f496e76616c696420706172747920696e6465782e000000000000000000000000600082015250565b600061147a601483610f32565b915061148582611444565b602082019050919050565b600060208201905081810360008301526114a98161146d565b9050919050565b7f4e487b7100000000000000000000000000000000000000000000000000000000600052603260045260246000fd5b7f4e487b7100000000000000000000000000000000000000000000000000000000600052601160045260246000fd5b600061151982610e0f565b91507fffffffffffffffffffffffffffffffffffffffffffffffffffffffffffffffff820361154b5761154a6114df565b5b600182019050919050565b7f4e487b7100000000000000000000000000000000000000000000000000000000600052602260045260246000fd5b6000600282049050600182168061159d57607f821691505b6020821081036115b0576115af611556565b5b50919050565b7f596f75206861766520616c726561647920766f7465642e000000000000000000600082015250565b60006115ec601783610f32565b91506115f7826115b6565b602082019050919050565b6000602082019050818103600083015261161b816115df565b9050919050565b7f496e76616c69642063616e64696461746520696e6465782e0000000000000000600082015250565b6000611658601883610f32565b915061166382611622565b602082019050919050565b600060208201905081810360008301526116878161164b565b905091905056fea2646970667358221220149a3c9b11393743a2203dc0c7b53edaf48f5d5e26429b2f883bcab60173974264736f6c63430008120033",
  "linkReferences": {},
  "deployedLinkReferences": {}
}